S01800006F6E5F44656D616E645F7472616669632E73726563AF
S11300000C942A000C94B8000C943C000C943C0012
S11300100C943C000C943C000C943C000C943C006C
S11300200C943C000C943C000C943C000C943C005C
S11300300C943C000C943C000C943C000C943C004C
S11300400C943C000C943C000C943C000C943C003C
S11300500C943C0011241FBECFE5D8E0DEBFCDBF19
S113006020E0A0E6B0E001C01D92A436B207E1F79B
S11300700E949F010C9482030C94000060E081E4D0
S11300800E94430161E081E40E94430162E081E453
S11300900E94430160E082E40E94430161E082E443
S11300A00E94430162E082E40E94430162E084E42E
S11300B00E943C010E94F9020E940403089560E03A
S11300C081E40E94510161E081E40E94510162E0F7
S11300D081E40E94510160E082E40E94510161E0E8
S11300E082E40E94510162E082E40E945101089579
S11300F0809160008111FCCF0E945F0062E081E486
S11301000E944A0160E082E40E944A010E94530373
S11301100E945F00C1E0C093620021E042E461E01C
S113012081E40E945E01C093610061E081E40E9469
S1130130510161E082E40E94510160E081E40E9487
S11301404A01C093630062E082E40E944A010E9473
S1130150530360E081E40E94510162E082E40E9462
S1130160510121E042E461E081E40E945E01C0CFDC
S11301701F920F920FB60F9211242F933F934F9318
S11301805F936F937F938F939F93AF93BF93EF93FB
S1130190FF9380916300813011F50E945F0060E05D
S11301A081E40E944A0162E082E40E944A010E94C2
S11301B0530360E081E40E94510162E082E40E9402
S11301C0510121E042E461E081E40E945E0161E0CA
S11301D081E40E94510161E082E40E945101809116
S11301E06200813021F0809161008130A1F50E948C
S11301F05F0060E082E40E944A010E94530360E0D1
S113020082E40E94510121E042E461E081E40E9421
S11302105E0161E081E40E94510161E082E40E9498
S1130220510160E081E40E944A0162E082E40E949C
S11302304A010E94530360E081E40E94510162E09C
S113024082E40E94510121E042E461E081E40E94E1
S11302505E010E945F00FF91EF91BF91AF919F916A
S11302608F917F916F915F914F913F912F910F905B
S11302700FBE0F901F901895982F862F40E0692F7E
S11302800E94A4010895982F862F41E0692F0E94AF
S1130290A4010895982F862F41E0692F0E942F0210
S11302A00895982F862F40E0692F0E942F02089509
S11302B0982F862F692F0E94BA020895CF92DF9259
S11302C0EF92FF920F931F93CF93DF93082F162F74
S11302D0D42FC22F83B7846083BFC12CD12C760165
S11302E01FC008B600FEFDCF88B7816088BFC70174
S11302F0B60126E030E040E050E00E946003672B46
S1130300682B692B41F4612F802F0E9458016C2FB8
S11303108D2F0E9458018FEFC81AD80AE80AF80AEC
S11303208DE4C816D104E104F104D8F2DF91CF9131
S11303301F910F91FF90EF90DF90CF9008950E944E
S11303403E000E947800FBCF623459F118F4613406
S113035041F00895633409F444C0643409F460C07E
S1130360089541110EC04AB321E030E0B90102C042
S1130370660F771F8A95E2F7CB01809584238ABBA9
S11303800895413009F06AC04AB321E030E0B90170
S113039002C0660F771F8A95E2F7CB01842B8ABBD4
S11303A0089541110EC047B321E030E0B90102C005
S11303B0660F771F8A95E2F7CB018095842387BB6C
S11303C00895413009F04AC047B321E030E0B90153
S11303D002C0660F771F8A95E2F7CB01842B87BB97
S11303E0089541110EC044B321E030E0B90102C0C8
S11303F0660F771F8A95E2F7CB018095842384BB2F
S11304000895413059F544B321E030E0B90102C008
S1130410660F771F8A95E2F7CB01842B84BB08957E
S113042041110EC041B321E030E0B90102C0660FB2
S1130430771F8A95E2F7CB018095842381BB0895C9
S1130440413061F441B321E030E0B90102C0660FEC
S1130450771F8A95E2F7CB01842B81BB0895623420
S113046059F118F4613441F00895633409F444C037
S1130470643409F460C0089541110EC04BB321E007
S113048030E0B90102C0660F771F8A95E2F7CB010D
S1130490809584238BBB0895413009F06AC04BB327
S11304A021E030E0B90102C0660F771F8A95E2F7B8
S11304B0CB01842B8BBB089541110EC048B321E0BE
S11304C030E0B90102C0660F771F8A95E2F7CB01CD
S11304D08095842388BB0895413009F04AC048B30D
S11304E021E030E0B90102C0660F771F8A95E2F778
S11304F0CB01842B88BB089541110EC045B321E084
S113050030E0B90102C0660F771F8A95E2F7CB018C
S11305108095842385BB0895413059F545B321E086
S113052030E0B90102C0660F771F8A95E2F7CB016C
S1130530842B85BB089541110EC042B321E030E005
S1130540B90102C0660F771F8A95E2F7CB01809547
S1130550842382BB0895413061F442B321E030E04A
S1130560B90102C0660F771F8A95E2F7CB01842B8D
S113057082BB08956234B1F018F4613431F0089507
S11305806334E9F0643441F108954BB321E030E081
S1130590B90102C0660F771F8A95E2F7CB01842761
S11305A08BBB089548B321E030E0B90102C0660F67
S11305B0771F8A95E2F7CB01842788BB089545B35A
S11305C021E030E0B90102C0660F771F8A95E2F797
S11305D0CB01842785BB089542B321E030E0B90103
S11305E002C0660F771F8A95E2F7CB01842782BB8E
S11305F00895789485B7836085BF8BB780648BBF7B
S11306008FB780688FBF089513BE12BE08950F93ED
S11306101F9389019A01603471058105910501F1E7
S113062058F4613071058105910591F068307105C8
S11306308105910589F017C0611541E074078105B2
S11306409105A9F06115744081059105A1F00BC0D5
S113065083B7816083BF07C083B7826083BF03C051
S113066083B7836083BF40E050E0BA0112C083B710
S1130670846083BFF8CF83B7856083BFF4CF08B6A7
S113068000FEFDCF88B7816088BF4F5F5F4F6F4F1B
S11306907F4F401751076207730788F31F910F912B
S11306A0089513BE08952DE430E040E050E060E08A
S11306B071E080E090E00E9407030E9451030895D6
S11306C0A1E21A2EAA1BBB1BFD010DC0AA1FBB1F52
S11306D0EE1FFF1FA217B307E407F50720F0A21BC4
S11306E0B30BE40BF50B661F771F881F991F1A9431
S11306F069F760957095809590959B01AC01BD015B
S10B0700CF010895F894FFCF26
S9030000FC
